:020000040800F2
:100000006006002049010008510100085301000862
:1000100000000000000000000000000000000000E0
:100020000000000000000000000000005501000872
:1000300000000000000000005701000859010008FE
:100040005B0100085B0100085B0100085B01000820
:100050005B0100085B0100085B0100085B01000810
:100060005B0100085B0100085B0100085B01000800
:100070005B0100085B0100085B0100085B010008F0
:100080005B0100085B0100085B0100085B010008E0
:100090005B0100085B0100085B0100085B010008D0
:1000A0005B0100085B0100085B0100085B010008C0
:1000B0005B0100085B0100085B0100085B010008B0
:1000C00000F002F800F030F80CA030C8083824180E
:1000D0002D18671EA246AB4654465D46AC4201D180
:1000E00000F022F87E460F3EB6460FCC0126334282
:1000F00000D0FB1A3343A246AB461847E403000086
:10010000F40300000023002400250026103A01D348
:1001100078C1FBD8520700D330C100D50B607047BF
:100120001FB51FBD10B510BD00F02DF81146FFF72B
:10013000F7FF00F09FF800F045F803B4FFF7F2FF77
:1001400003BC00F04BF80000074880470748004711
:10015000FEE7FEE7FEE7FEE7FEE7FEE704480549A7
:10016000054A064B7047000071020008C1000008F4
:100170006000002060060020600200206002002075
:10018000704770477047754600F024F8AE4605008A
:1001900069465346C008C000854618B020B5FFF731
:1001A000DDFF60BCB64600260027C0C5C0C5C0C57F
:1001B000C0C5C0C5C0C5C0C5C0C5403D490849008F
:1001C0008D46704710B50446C046C0462046FFF72E
:1001D000B4FF10BD004870470000002001491820FE
:1001E000ABBEFEE72600020070470000B0B501205C
:1001F00081034E4A53680B435360410413680B4319
:1002000013600521CA0418490B460C3B1C681443B3
:100210001C60112212018B6913438B6142020B4651
:10022000083B1C6894431C60032293040C689C43A5
:100230000C600C1F25681D43256012050B68934355
:100240000B6002050B6813430B6008490A68824380
:100250000A604522CA600C220A6000224A608A6055
:100260000A6802430A60B0BD0C0000480038014033
:100270007047000086B0FFF7B9FF012398042B49AF
:100280000A6802430A602A4D284618380168294A3C
:100290000A4302600026059604960396029601938F
:1002A0001802296801432960234F254C38688006CD
:1002B000FCD53889C0B20921204A03E0491E243206
:1002C000002904D013688342F8D15668F6E7082E57
:1002D0000BD100200590049003900290215809044E
:1002E0002960001D2028F9D1E0E7B00020587100F6
:1002F00002AB5A18595A00290BD000211180000472
:100300002A6802432A6038680006FCD500F01AF813
:10031000CCE70199118029680143296038680006FB
:10032000FCD5019900F00EF8C0E7C0461410024059
:1003300018040048555501001C3801407C03000892
:10034000C00400080948012907D100210AA2535C12
:100350000380491C0429FAD106E0002104A2535C61
:100360000380491C0529FAD17047C046283801404E
:100370006F66660D0A0000006F6E0D0A3100000006
:10038000000000000000000000000000000000006D
:10039000000000000000000000000000000000005D
:1003A000320000000100000000000000000000001A
:1003B000000000000000000000000000000000003D
:1003C00000000000330000000200000000000000F8
:1003D000000000000000000000000000000000001D
:1003E00000000000000000003400000003000000D6
:1003F00000000000000000000000000000000000FD
:1004000000000000000000000000000035000000B7
:1004100004000000000000000000000000000000D8
:1004200000000000000000000000000000000000CC
:100430003600000005000000000000000000000081
:1004400000000000000000000000000000000000AC
:10045000000000003700000006000000000000005F
:10046000000000000000000000000000000000008C
:10047000000000000000000038000000070000003D
:10048000000000000000000000000000000000006C
:10049000000000000000000000000000300000002C
:1004A0000800000000000000000000000000000044
:1004B000000000000000000000000000000000003C
:1004C00001000000020000000400000080000000A5
:1004D00040000000200000001000000008000000A4
:1004E000F00400080000002060060000040100087D
:0400000508000149A5
:00000001FF
