:020000040800F2
:100000006006002049010008510100085301000862
:1000100000000000000000000000000000000000E0
:100020000000000000000000000000005501000872
:1000300000000000000000005701000859010008FE
:100040005B0100085B0100085B0100085B01000820
:100050005B0100085B0100085B0100085B01000810
:100060005B0100085B0100085B0100085B01000800
:100070005B0100085B0100085B0100085B010008F0
:100080005B0100085B0100085B0100085B010008E0
:100090005B0100085B0100085B0100085B010008D0
:1000A0005B0100085B0100085B0100085B010008C0
:1000B0005B0100085B0100085B0100085B010008B0
:1000C00000F002F800F030F80CA030C8083824180E
:1000D0002D18671EA246AB4654465D46AC4201D180
:1000E00000F022F87E460F3EB6460FCC0126334282
:1000F00000D0FB1A3343A246AB4618474C0200001F
:100100005C0200000023002400250026103A01D3E1
:1001100078C1FBD8520700D330C100D50B607047BF
:100120001FB51FBD10B510BD00F02DF81146FFF72B
:10013000F7FF00F069F800F045F803B4FFF7F2FFAD
:1001400003BC00F04BF80000074880470748004711
:10015000FEE7FEE7FEE7FEE7FEE7FEE704480549A7
:10016000054A064B70470000EB010008C10000087B
:100170006000002060060020600200206002002075
:10018000704770477047754600F024F8AE4605008A
:1001900069465346C008C000854618B020B5FFF731
:1001A000DDFF60BCB64600260027C0C5C0C5C0C57F
:1001B000C0C5C0C5C0C5C0C5C0C5403D490849008F
:1001C0008D46704710B50446C046C0462046FFF72E
:1001D000B4FF10BD004870470000002001491820FE
:1001E000ABBEFEE7260002007047704781B00021D9
:1001F00000910099814205D20099491C0091009913
:100200008142F9D301B0704786B00120800434499F
:100210000A6802430A60334D284618380168324A9A
:100220000A430260FF21090602688A4302602F48E0
:100230000EC80068059002A80EC02846083801685C
:1002400089B2C90B02AC618001684904C90F2181E0
:1002500001688904C90FA1810068C004C00FE08152
:100260000025082726887F1E0220394600F050F816
:1002700070434519A41C002FF4D100201DA7A9B27A
:10028000032908D9032215406A461552801C8D089F
:100290000428F4D101E069460D520024114D1A4E94
:1002A0006846005B8000385829680143296015487A
:1002B000FFF79CFF28680E49084328603046FFF787
:1002C00095FFA41C082CEBD12868802101432960EC
:1002D0000E48FFF78BFF2868054908432860ACE704
:1002E0001410024018040048555504003803000853
:1002F0000000FFFF3F000000060000005B00000060
:100300004F000000400D030050C3000020A1070073
:1003100010B5002902D0012902D110BD012010BD65
:10032000CA0701D0044600E0012440434908FFF712
:10033000EFFF604310BD000000000000010001005D
:10034000000000000000000058030008000000202A
:08035000600600000401000832
:0400000508000149A5
:00000001FF
